:100000000C94DC010C9458260C94FB010C94FB011D
:100010000C94FB010C94FB010C94FB010C94FB0170
:100020000C94FB010C94D1250C94FB010C94FB0166
:100030000C94FB010C94FB010C94FB010C944C25DB
:100040000C944C250C94FB010C94FB010C94FB01CB
:100050000C94FB010C94FB010C94FB010C94FB0130
:100060000C94FB010C94FB010C94FB010C94FB0120
:100070000C94FB010C94FB010C94FB010C94FB0110
:100080000C94FB010C94FB010C94FB018117871766
:100090008A178D1790179317991796179C179F1704
:1000A000A217AB17AE17B117B417A8177E1784178E
:1000B000B717BA17A5174661696C656420746F207D
:1000C0007265676973746572207369676E616C0D20
:1000D0000A00424D41432054583A20576F6B652027
:1000E0007570206F6E2077726F6E67207369676E10
:1000F000616C0D0A00424D41432054583A2045722C
:10010000726F722063616C6C696E67206576656ED4
:100110007420776169740D0A00424D4143204552B5
:10012000524F523A206372656174696E6720656E42
:1001300061626C65207369676E616C206661696CD1
:1001400065640D0A00424D4143204552524F523AD8
:10015000206372656174696E6720747820736967C3
:100160006E616C206661696C65640D0A00424D41E8
:1001700043204552524F523A206372656174696E52
:1001800067207278207369676E616C206661696CA4
:1001900065640D0A00554E4B4F574E004578746507
:1001A000726E616C2052657365740042726F776E77
:1001B000204F757420446574656374004661696CF2
:1001C000656420746F206372656174652053656D8A
:1001D0006170686F7265004661696C656420746F58
:1001E00020637265617465205369676E616C004BB2
:1001F00065726E656C2066756E6374696F6E206ED5
:100200006F7420696D706C656D656E746564004413
:1002100065766963652044726976657220457272FD
:100220006F72005761746368646F672052657374FE
:10023000617274005357205761746368646F67205C
:10024000526573746172740054696D6572204F76E3
:100250006572666C6F7700556E68616E646C65647C
:1002600020496E7465727275707420566563746F80
:1002700072004C6F7720566F6C746167650045782B
:10028000747261205461736B20737461727465645D
:100290002C206973206E726B5F6366672E68206F17
:1002A0006B3F0049646C65206F72204B65726E6510
:1002B0006C20537461636B204F766572666C6F7748
:1002C00000556E657870656374656420526573745B
:1002D000617274004475706C696361746564205464
:1002E00061736B204944005363686564756C657283
:1002F000204D69737365642057616B657570005498
:1003000061736B20526573657276652056696F6CF8
:10031000617465640052657365727665204572721A
:100320006F7220696E205363686564756C65720036
:10033000496E76616C696420537461636B20506F01
:10034000696E746572005461736B20537461636BE2
:10035000204F766572666C6F7700537461636B2013
:10036000776173206E6F7420646566696E656420C2
:100370006173206C6172676520656E6F75676821B7
:1003800000293A20002A4E524B204552524F522803
:10039000000D0A535441434B2044554D500D0A0063
:1003A00045464765666700202B2D2E3031323334A9
:1003B000353637383968000011241FBECFEFD0E141
:1003C000DEBFCDBF11E0A0E0B1E0E6E6F8E500E079
:1003D0000BBF02C007900D92AE3BB107D9F715E0F5
:1003E000AEEBB1E001C01D92A036B107E1F70E946B
:1003F000BA020C94312C0C940326CF93DF938EE336
:1004000092E09093F3038093F203CDEED3E0CE011C
:1004100067E772E040E850E00E94082782E08887A2
:1004200081E08F8389878A8781E090E0A0E0B0E057
:100430008B879C87AD87BE871F86188A198A1A8A80
:100440008B8B9C8BAD8BBE8B80E095E6ADECBDE1DC
:100450008F8B988FA98FBA8F1B8E1C8E1D8E1E8E30
:100460001F8E18A219A21AA2CE010E947C1F80E042
:1004700091E00E94062ADF91CF9108958F929F927A
:10048000BF92CF92DF92EF92FF920F931F93DF9371
:10049000CF9300D0CDB7DEB70E94971D00D000D01B
:1004A000EDB7FEB731962DE031E0ADB7BEB712968D
:1004B0003C932E931197828313820E94ED290F9013
:1004C0000F900F900F9089E10E94320683E093E035
:1004D00064E70E94F40282E0C82ED12CCC0EDD1E0F
:1004E0007E010894E11CF11C0EE111E00E94E5057B
:1004F0008130E1F781E090E00E947413C701B601FA
:100500000E9413034C0100D000D000D0EDB7FEB71D
:100510003196ADB7BEB712961C930E931197898191
:10052000828313828A81992787FD9095958384839E
:100530000E94ED29BB248DB79EB706960FB6F8949E
:100540009EBF0FBE8DBF08C0F401EB0DF11D808171
:1005500090E00E94FF29B3948981B816A8F38CE338
:1005600091E00E94062A81E090E00E945E130E94C2
:100570003103BCCF0E94F10F87E090E00E94C813C6
:100580000E949F1580E090E00E945E1381E090E061
:100590000E945E1382E090E00E945E138FEF90E075
:1005A0000E945E1360E070E080E090E020E030E0C8
:1005B00040E050E00E94F9200E9499030E94FD0152
:1005C0000E944D1580E090E0089508958FEF089502
:1005D00080E090E008959093F8028093F70281E024
:1005E0000895809373020895009711F48FEF089592
:1005F00090931604809315046093140481E0809313
:100600006602089520916502213011F48FEF08955C
:1006100021E0209365029093FB028093FA0260939D
:10062000F90281E00895FC01DB01809166028823D4
:1006300029F010821C9220E030E00AC0809113045F
:100640008083809118048C932091150430911604B6
:10065000C901089580E090916602992309F481E030
:10066000089581E0809366020895DF93CF93CDB71C
:10067000DEB728970FB6F894DEBF0FBECDBF298333
:100680003A834B835C836D837E838F839887298134
:100690003A814B815C818D819E81AF81B885211526
:1006A00031054105510551F480306DE2960761E353
:1006B000A60761E0B60710F48FEF11C020936B021C
:1006C00030936C0240936D0250936E0280936F02E0
:1006D00090937002A0937102B093720281E0289609
:1006E0000FB6F894DEBF0FBECDBFCF91DF91089556
:1006F000809167020895809161029091620208954D
:1007000010926102109262021092630210926402CF
:1007100081E00895982F823010F481E008958830A8
:1007200008F096E020E081E0880F2F5F2917E0F3C2
:100730000895CF93DF93CEEBD1E0CE016AE175E06F
:100740000E94A726CE0161EE71E040E850E00E94D1
:10075000082784E18093C60181E08093C5018093DE
:10076000C7018093C8011092C9011092CA0110926A
:10077000CB011092CC0180E09DE2A1E3B1E0809337
:10078000CD019093CE01A093CF01B093D00185E02D
:1007900090E0A0E0B0E08093D1019093D201A093CB
:1007A000D301B093D4011092D5011092D6011092CA
:1007B000D7011092D8011092D9011092DA0110924B
:1007C000DB011092DC011092DD011092DE0110922B
:1007D000DF011092E001CE010E947C1FDF91CF91DA
:1007E0000895DF93CF930F92CDB7DEB70E942B0809
:1007F0008AEF90E00E94A32420B330E086E0369593
:1008000027958A95E1F7822F817020FF04C08983A4
:100810000E943D0889810F90CF91DF9108950F9339
:100820001F93CF93DF9380917302882309F445C00F
:100830008BE692E00E940A218C010E945A296AE00C
:1008400070E00E94CB28BC016F5F7F4FC8010E94FF
:10085000B728CB010E94AD1E11E00E94F103082FC2
:100860000E943D08013049F10E945A29EC01812F74
:100870000E948A03682FCE0170E00E94CB2890E08E
:100880000E940E1F8BE692E00E940A21EC010E945A
:100890005A296AE070E00E94CB28BC016F5F7F4F4D
:1008A000CE010E94B728CB010E94AD1E002329F47F
:1008B0001F5F173090F216E0D0CF0E946D0A0E94A1
:1008C000150B20916B0230916C0240916D0250919A
:1008D0006E0260916F02709170028091710290912E
:1008E00072020E94A71D0E941C0B0E94910A0E9486
:1008F0003D0887EF92E00E94230B809368020E94DC
:100900003D081092650280919A040E94E81A81E0E5
:10091000DF91CF911F910F9108951F93DF93CF9394
:100920000F92CDB7DEB780E194E0609169020E943A
:10093000F50E0E942B0810E026C01F5F20916B026D
:1009400030916C0240916D0250916E0260916F0285
:100950007091700280917102909172020E94A71DA5
:10096000133089F48091610290916202A091630238
:10097000B09164028F3F2FEF920720E0A20720E0A2
:10098000B207A8F01FC00E9451088823B1F21DC011
:100990001F5F84E690E00E94A3241333B9F4809192
:1009A000610290916202A0916302B091640201968B
:1009B000A11DB11D8093610290936202A093630216
:1009C000B09364020E943D0821C010E00E946308B9
:1009D0008823F1F289830E943D088981813019F4CE
:1009E0001092660214C08091610290916202A091FF
:1009F0006302B09164020196A11DB11D8093610252
:100A000090936202A0936302B093640280E00F901F
:100A1000CF91DF911F91089580919A040E94091A45
:100A200080919A040895809102030E94091A80918E
:100A300002030895EF92FF920F931F9302C00E944A
:100A4000401F809167028823D1F3809176020E9433
:100A5000091A8F3F21F486EB90E00E94E71391E0A2
:100A6000E92EF12C012D112D80916A02882359F174
:100A700080916602813041F40E94F103882341F4A1
:100A80000E948D04813021F4809102030E94E81AB3
:100A900080916502813021F40E943D080E940F047C
:100AA00020916B0230916C0240916D0250916E0268
:100AB00060916F0270917002809171029091720248
:100AC0000E94A71DD1CF809176020E94091AC80109
:100AD000B7010090760204C0660F771F881F991F28
:100AE0000A94D2F70E94421C0090760204C09695A8
:100AF0008795779567950A94D2F7617070708070CA
:100B000090706115710581059105E9F2ADCFEF9205
:100B1000FF920F931F93DF93CF930F92CDB7DEB762
:100B20007C0180916502813009F446C080919A046D
:100B300069830E94091A81E080936502F092FB02AA
:100B4000E092FA0269816093F90261E070E080E06E
:100B500090E000909A0404C0660F771F881F991FC9
:100B60000A94D2F70E94421C7B018C016115710529
:100B70008105910521F485EF90E00E94E713D801EB
:100B8000C70100909A0404C0B695A79597958795DC
:100B90000A94D2F781709070A070B0700097A10590
:100BA000B10521F482ED90E00E94E7138091680284
:100BB000882311F081E001C08FEF0F90CF91DF917A
:100BC0001F910F91FF90EF90089580916602882306
:100BD00039F1809102030E94091A61E070E080E01F
:100BE00090E00090020304C0660F771F881F991FD2
:100BF0000A94D2F70E94421C0090020304C096950A
:100C00008795779567950A94D2F7617070708070B8
:100C10009070611571058105910511F48FEF0895AC
:100C200081E0089581E080936A020E94E80E80913D
:100C300076020E94E81A089510926A020E9428071C
:100C40000895682F8B3110F08FEF0895809369021B
:100C500080E194E04FEF5FEF20E030E00E94110F61
:100C600081E008951F93182F109267028FEF8093F1
:100C7000740281E08093730210926102109262020A
:100C8000109263021092640210926B0210926C0236
:100C900010926D0210926E0280E091EEA5EFB5E029
:100CA00080936F0290937002A0937102B0937202CE
:100CB0000E947E19809302038F3F19F48DE691E024
:100CC00008C00E947E1980939A048F3F71F485E4D6
:100CD00091E00E94E713E0913605F09137058EE030
:100CE00060850E9408188FEF50C00E947E19809383
:100CF00076028F3F19F489E191E0EBCF1092650203
:100D000010926602109216041092150410921404A8
:100D100080E194E0612F4FEF5FEF20E030E00E9430
:100D2000110F10936902C09883E18FB9779BFECFB2
:100D300085EE8FB9779BFECF80E88FB9779BFECF8A
:100D4000C09AC09885E18FB9779BFECF80E88FB9B4
:100D5000779BFECF8FEF8FB9779BFECFC09AC0985D
:100D600087E18FB9779BFECF8AE08FB9779BFECF63
:100D700086E58FB9779BFECFC09A83ED0E945A0A11
:100D800081E08093670280936A021F9108950E9418
:100D90005A0A81E00895803210F08FEF08950E9482
:100DA000AA0781E008950E94940781E008950E94B7
:100DB000740781E00895603111F08FEF08950E946B
:100DC000140E81E008950E94370708950E94E60DF1
:100DD00081E008950E94BC0781E008950E94D20737
:100DE00081E008950E94E80781E008950E940108CB
:100DF00081E00895643011F08FEF08950E943A0762
:100E000081E0089590E09C012B503040220F331F69
:100E1000220F331F865A9E4B820F931FF894C0985F
:100E200028E12FB9779BFECF9FB9779BFECF8FB973
:100E3000779BFECFC09A78940895F894C0981FB815
:100E4000779BFECF8FB1C09A789486FFF6CF089536
:100E5000F894C09887E08FB9779BFECFC09AC0986E
:100E600086E08FB9779BFECFC09A789408958091E1
:100E7000B5040895FC01C09889EC8FB9779BFECF2B
:100E800080E88FB9779BFECF82E08150DF01A80F09
:100E9000B11D9C919FB9779BFECF8823B1F7C09A73
:100EA000C0988BEC8FB9779BFECF80E88FB9779B8A
:100EB000FECF82E08150DF01A80FB11D12969C91F8
:100EC00012979FB9779BFECF8823A1F7C09A8081A4
:100ED0008093B60481818093B70482818093B804A3
:100EE00083818093B9040895C09889E18FB9779B75
:100EF000FECF83E08FB9779BFECF86E08FB9779BDB
:100F0000FECFC09AC0988AE18FB9779BFECF8EE062
:100F10008FB9779BFECF8EE08FB9779BFECFC09ABB
:100F200081E08093A6040895C09889E18FB9779BEA
:100F3000FECF81E08FB9779BFECF84EC8FB9779B92
:100F4000FECFC09A1092A60408958091A4049091B7
:100F5000A504089590E08F719070806E906AC0989B
:100F600025E12FB9779BFECF9FB9779BFECF8FB935
:100F7000779BFECFC09A08958091A7049091A80412
:100F800098609093A8048093A704C09821E12FB99A
:100F9000779BFECF9FB9779BFECF8FB9779BFECF14
:100FA000C09A08958091A7049091A804977F909388
:100FB000A8048093A704C09821E12FB9779BFECFA6
:100FC0009FB9779BFECF8FB9779BFECFC09A0895CC
:100FD00081E08093B4048091A7049091A80480617B
:100FE0009093A8048093A704C09821E12FB9779B20
:100FF000FECF9FB9779BFECF8FB9779BFECFC09A6C
:1010000008951092B4048091A7049091A8048F7E53
:101010009093A8048093A704C09821E12FB9779BEF
:10102000FECF9FB9779BFECF8FB9779BFECFC09A3B
:10103000089581E08093B104C09883E08FB9779BD5
:10104000FECFC09AC09888E08FB9779BFECFC09A38
:101050001092BA04089581E08093B104C09883E0AF
:101060008FB9779BFECFC09AC09888E08FB9779BE5
:10107000FECFC09A1092BA0408951092B104C0989D
:1010800086E08FB9779BFECFC09A1092BA0408957C
:1010900080B390E024E0969587952A95E1F78170DA
:1010A000089581B190E036E0969587953A95E1F7FD
:1010B0008170089580B390E044E0969587954A95B5
:1010C000E1F781700895DF93CF9300D000D00F92A5
:1010D000CDB7DEB70E9902C080E0CEC11092B50444
:1010E0000E9B1AC0B79918C0C0988FE78FB9779B2D
:1010F000FECF1FB8779BFECF8FB1C09AC09888E013
:101100008FB9779BFECFC09AC09888E08FB9779B44
:10111000FECFC09A8FEFB0C1C0988FE78FB9779B91
:10112000FECF1FB8779BFECF8FB1C09A8F77C1F4E7
:10113000C0988FE78FB9779BFECF1FB8779BFECF04
:101140008FB1C09AC09888E08FB9779BFECFC09AC4
:10115000C09888E08FB9779BFECFC09A8EEF8CC184
:101160008C308CF0E091A904F091AA04282F332749
:1011700027FD30952B5030404481552747FD509531
:10118000421753077CF5C0989FE79FB9779BFECF26
:1011900090E0282F332727FD309504C01FB8779B98
:1011A000FECF9F5F492F50E04217530714F4B799C1
:1011B000F5CFC09AC0988FE78FB9779BFECF1FB845
:1011C000779BFECF8FB1C09AC09888E08FB9779B8C
:1011D000FECFC09AC09888E08FB9779BFECFC09AA7
:1011E0008DEF4AC1E091A904F091AA048C50838349
:1011F000C0988FE78FB9779BFECFFE013296CF0163
:1012000002961FB8779BFECF2FB12193E817F907FD
:10121000C1F7C09AE091A904F091AA048A819B8148
:1012200055E0969587955A95E1F781708783C09828
:101230008FE78FB9779BFECF1FB8779BFECFE091EA
:10124000A904F091AA048FB18083C09AC0988FE757
:101250008FB9779BFECF80E006C01FB8779BFECF8B
:101260008F5F843011F0B799F8CFC09AC0988FE79C
:101270008FB9779BFECF80E090E01FB8779BFECFC1
:10128000E091A904F091AA042FB1E80FF91F21837E
:1012900001968230910589F7C09A8A8183FF4DC0FB
:1012A000C0988FE78FB9779BFECFE0EAF4E01FB8D4
:1012B000779BFECF8FB1819384E0E43AF807B9F7CA
:1012C000C09AC09889E98FB9779BFECF80E88FB923
:1012D000779BFECF82E08150E82FF0E0E056FB4F95
:1012E00090819FB9779BFECF8823A9F7C09AC098B9
:1012F0008BE98FB9779BFECF80E88FB9779BFECFC4
:1013000082E08150E82FF0E0EE55FB4F90819FB9CD
:10131000779BFECF8823A9F7C09AC0988CE08FB93D
:10132000779BFECFC09A81E08093B504E091A90439
:10133000F091AA04838184508383C0988FE78FB98A
:10134000779BFECF80E00FC01FB8779BFECFE09168
:10135000A904F091AA049FB10580F681E02DE80F61
:10136000F11D90838F5FE091A904F091AA04482FAA
:1013700050E02381332727FD30954217530724F38C
:10138000C09AC0988FE78FB9779BFECF1FB8779B25
:10139000FECF8FB1C09AC0989FE79FB9779BFECFD1
:1013A0008983FE013496CE0106961FB8779BFECF47
:1013B0002FB12193E817F907C1F7C09AE091A9046A
:1013C000F091AA048C81808790E080E00CC0E091CD
:1013D000A904F091AA040580F681E02DE20FF31F25
:1013E0002081820F9F5FE091A904F091AA04292F28
:1013F00030E04381552747FD5095241735073CF3CE
:1014000099818917C1F0C0988FE78FB9779BFECF7C
:101410001FB8779BFECF8FB1C09AC09888E08FB974
:10142000779BFECFC09AC09888E08FB9779BFECF9C
:10143000C09A8CEF21C08D8187FF07C08091BA04CC
:101440008F5F8093BA0481E017C0C0988FE78FB98F
:10145000779BFECF1FB8779BFECF8FB1C09AC09805
:1014600088E08FB9779BFECFC09AC09888E08FB98B
:10147000779BFECFC09A8BEF0F900F900F900F903D
:101480000F90CF91DF9108958091BA04882321F0C5
:101490008091BA041092BA040895C09888E08FB978
:1014A000779BFECFC09AC09888E08FB9779BFECF1C
:1014B000C09A0895992787FD9095982F882780686E
:1014C000C09823E12FB9779BFECF9FB9779BFECFC2
:1014D0008FB9779BFECFC09A0895C09886E08FB9E8
:1014E000779BFECFC09AC09882E18FB9779BFECFE1
:1014F00085E08FB9779BFECF88E08FB9779BFECFD1
:10150000C09AC0988EE28FB9779BFECF88E18FB9E1
:10151000779BFECF1FB8779BFECFC09A0E944D0AE3
:101520000895C09886E08FB9779BFECFC09AC09887
:1015300082E18FB9779BFECF85E08FB9779BFECF95
:101540001FB8779BFECFC09AC0988EE28FB9779B69
:10155000FECF1FB8779BFECF1FB8779BFECFC09AF8
:101560000E944D0A0895C09886E08FB9779BFECF00
:10157000C09AC09882E18FB9779BFECF85E08FB982
:10158000779BFECF81E08FB9779BFECFC09A0E94F8
:101590004D0A0895C09882E18FB9779BFECF85E010
:1015A0008FB9779BFECF84E08FB9779BFECFC09A2F
:1015B0000E944D0A089590E08F7090702091A704CA
:1015C0003091A804207F822B932B9093A8048093C2
:1015D000A704C09821E12FB9779BFECF9FB9779BD5
:1015E000FECF8FB9779BFECFC09A089590E076E04A
:1015F000880F991F7A95E1F790702091A704309198
:10160000A8042F73822B932B9093A8048093A70494
:10161000C09821E12FB9779BFECF9FB9779BFECF72
:101620008FB9779BFECFC09A0895C09884E08FB998
:10163000779BFECFC09A0895C09886E08FB9779BBC
:10164000FECFC09A0895FF920F931F93DF93CF931D
:1016500000D000D0CDB7DEB7FC018091A60488236E
:1016600031F0C0989DE09FB9779BFECFC09A1A8257
:101670009281492F552747FD509520E009C0A3814D
:10168000B481A60FB71F3A816C91360F3A832F5F52
:10169000622F70E06417750794F3292F245F298364
:1016A000882311F0905F99830E99FECF8499FCCF27
:1016B000F894C09899E09FB9779BFECFC09AC098E4
:1016C00099E09FB9779BFECFC09AC0989EE39FB9DF
:1016D000779BFECF99819FB9779BFECFC09A21E47B
:1016E00038E83C832B839091B404992321F021E6C0
:1016F00038E83C832B83882329F02B813C812860A8
:101700003C832B83C0989EE39FB9779BFECFDE017D
:1017100013969E012B5F3F4F9C919FB9779BFECF05
:101720001196A217B307C1F7C09AC0989EE39FB95C
:10173000779BFECF9091AB049FB9779BFECFC09A69
:10174000C0989EE39FB9779BFECF20E030E0D9019F
:10175000A755BB4F14969C9114979FB9779BFECFCA
:101760002F5F3F4F2230310591F7C09AC0989EE31A
:101770009FB9779BFECFDF019F012E5F3F4F9C916A
:101780009FB9779BFECF1196A217B307C1F7C09AF6
:10179000C0989EE39FB9779BFECF20E030E0D9014F
:1017A000A755BB4F16969C9116979FB9779BFECF76
:1017B0002F5F3F4F2230310591F7C09A882389F07F
:1017C000C0988EE38FB9779BFECFA6EBB4E08C91E7
:1017D0008FB9779BFECF119684E0AA3BB807B9F783
:1017E000C09AC0988EE38FB9779BFECF80E009C086
:1017F000A381B481A20FB31F9C919FB9779BFECFA9
:101800008F5F282F30E02417350794F3C09AC098D3
:101810008EE38FB9779BFECF8A818FB9779BFECFFE
:10182000C09A8581882391F18091B104882331F495
:10183000C09883E08FB9779BFECFC09AC0981FB83D
:10184000779BFECF8FB1C09A81FFF8CF10E005E003
:10185000C0980FB9779BFECFC09AC0981FB8779BEE
:10186000FECFFFB0C09A1F5F153649F4789480917F
:10187000A4049091A5040E94861A80E042C084E6E8
:1018800090E00E94FA13F3FEE3CF06C0C09884E014
:101890008FB9779BFECFC09A7894849BFECF8499B2
:1018A000FECF8091B404882381F084EA92E00E9404
:1018B000FA13B79B0CC0C0988FE78FB9779BFECF08
:1018C0001FB8779BFECF8FB1C09A81E00DC0C09842
:1018D00088E08FB9779BFECFC09AC09888E08FB917
:1018E000779BFECFC09A80E0F894C09896E09FB9AD
:1018F000779BFECFC09A78949091AB049F5F9093B2
:10190000AB040F900F900F900F90CF91DF911F912C
:101910000F91FF900895CF92DF92EF92FF920F9375
:101920001F93DF93CF9300D000D00F92CDB7DEB7D7
:101930008C017B016A010E944A25C09888E08FB91A
:10194000779BFECFC09AC09888E08FB9779BFECF77
:10195000C09A0E99FECF8499FCCFF894C09889E084
:101960008FB9779BFECFC09AC09889E08FB9779BDB
:10197000FECFC09A1A82D80112962C911297622F2C
:10198000772767FD709580E00CC0D8011396ED9124
:10199000FC911497E40FF51F9A813081930F9A837D
:1019A0008F5F482F50E0461757077CF3822F845FE4
:1019B0008983C0989EE39FB9779BFECF8FB9779BB1
:1019C000FECFC09AF8018681882319F481E498E853
:1019D00002C081E698E89C838B83C0988EE38FB920
:1019E000779BFECFFE013396CE01059620812FB95D
:1019F000779BFECF3196E817F907C1F7C09AC098D8
:101A00008EE38FB9779BFECF8091AB048FB9779B24
:101A1000FECFC09AC0988EE38FB9779BFECF80E04F
:101A200090E0FC01E755FB4F24812FB9779BFECF57
:101A3000019682309105A9F7C09AC0988EE38FB9BC
:101A4000779BFECFF801C801029620812FB9779BC2
:101A5000FECF3196E817F907C1F7C09AC0988EE318
:101A60008FB9779BFECF80E090E0FC01E755FB4FFC
:101A700026812FB9779BFECF019682309105A9F779
:101A8000C09AC701B6010E94DA24D80115968C913C
:101A900015978823A9F18091B104882331F4C09867
:101AA00083E08FB9779BFECFC09AC0981FB8779B11
:101AB000FECF8FB1C09A81FFF8CF20E0E5E0EE2E97
:101AC000C098EFB8779BFECFC09AC0981FB8779B9D
:101AD000FECFCFB0C09A2F5F253649F4789480911D
:101AE000A4049091A5040E94861A80E061C084E657
:101AF00090E02D830E94FA132D81C3FEE1CF06C032
:101B0000C09884E08FB9779BFECFC09AC0988EE3CF
:101B10008FB9779BFECFF8014281552747FD50953D
:101B200080E00CC0D8011396ED91FC911497E20F60
:101B3000F31F90819FB9779BFECF8F5F282F30E0F6
:101B4000241735077CF3C09AC0988EE38FB9779B32
:101B5000FECF8A818FB9779BFECFC09A849BFECF40
:101B6000F8948499FECFC09888E08FB9779BFECF18
:101B7000C09AC09888E08FB9779BFECFC09AC09872
:101B800089E08FB9779BFECFC09AC09889E08FB962
:101B9000779BFECFC09AC09886E08FB9779BFECF27
:101BA000C09A78948091AB048F5F8093AB0481E0FE
:101BB0000F900F900F900F900F90CF91DF911F918A
:101BC0000F91FF90EF90DF90CF900895DF93CF9328
:101BD00000D0CDB7DEB79A8389839093B004809309
:101BE000AF0484EF91E00E94A324C0988AEE8FB9DD
:101BF000779BFECF80E88FB9779BFECFFE013196B1
:101C0000CE01039620812FB9779BFECF3196E8173E
:101C1000F907C1F7C09A84EF91E00E94A3240F90C6
:101C20000F90CF91DF9108958F929F92AF92BF92C4
:101C3000CF92DF92EF92FF920F931F93DF93CF9398
:101C400000D000D0CDB7DEB7E82E092F84E690E0B3
:101C50000E94A324CE2CD02E20E031E08E010F5F15
:101C60001F4F83E0A82EB12CAC0EBD1EF601908054
:101C70008824818190E0882999299A83898384E640
:101C800090E02B833C830E94A324C0982B813C814D
:101C9000822F80688FB9779BFECFC9019595879574
:101CA000807C8FB9779BFECF7801F80180818FB956
:101CB000779BFECF3196EA15FB05C1F7C09A0894D1
:101CC000C11CD11C2E5F3F4FF1E020313F0771F660
:101CD00084E690E00E94A32420E431E080E191E0DA
:101CE0001A821982C098422F40684FB9779BFECF65
:101CF000A90155954795407C4FB9779BFECFF801D8
:101D000040814FB9779BFECF3196EA15FB05C1F7AD
:101D1000C09AC098482F40684FB9779BFECFAC015E
:101D200055954795407C4FB9779BFECFF801408190
:101D30004FB9779BFECF3196EA15FB05C1F7C09AE4
:101D400002962E5F3F4F41E08E31940749F681E0C5
:101D500090E09A838983C0988EEC8FB9779BFECFF1
:101D600080E88FB9779BFECFC8010296F8012081E9
:101D70002FB9779BFECF3196E817F907C1F7C09AC4
:101D8000C0988EE98FB9779BFECF80E88FB9779B9B
:101D9000FECF0E5F1F4FF70180818FB9779BFECF7B
:101DA0000894E11CF11CE016F106A9F7C09A0F9007
:101DB0000F900F900F90CF91DF911F910F91FF9097
:101DC000EF90DF90CF90BF90AF909F908F9008954D
:101DD000F894C09881E08FB9779BFECFC09A88EEC7
:101DE00093E00E94A32478940895CF93DF93EC01AD
:101DF000862FC09898E09FB9779BFECFC09AC09875
:101E000098E09FB9779BFECFC09A0E940207D093BB
:101E1000AA04C093A904DF91CF9108950E940207FC
:101E20000895CF92DF92FF920F931F93DF93CF938A
:101E300000D0CDB7DEB78C01F62E5A8349836901F5
:101E4000DD9A88EE93E00E94FA13DE9881E090E03C
:101E50000E94FA13DE9A84E690E00E94FA13F89446
:101E6000C09881E08FB9779BFECFC09A82EE92E056
:101E70009093A8048093A704C09881E18FB9779BC1
:101E8000FECF82E08FB9779BFECF82EE8FB9779B32
:101E9000FECFC09AC09882E18FB9779BFECF85E0D4
:101EA0008FB9779BFECF1FB8779BFECFC09AC098A3
:101EB0008CE18FB9779BFECF1FB8779BFECF8FE762
:101EC0008FB9779BFECFC09AC09889E18FB9779B75
:101ED000FECF81E08FB9779BFECF84EC8FB9779BE3
:101EE000FECFC09AC09887E18FB9779BFECF8AE179
:101EF0008FB9779BFECF86E58FB9779BFECFC09ACF
:101F000084EF91E00E94A324C09888EE8FB9779B5C
:101F1000FECF80E88FB9779BFECFFE013196CE01D0
:101F2000039620812FB9779BFECF3196E817F907EA
:101F3000C1F7C09A84EF91E00E94A32478948F2D7A
:101F40000E94020778941093AA040093A90489813F
:101F50009A819093AE048093AD04D092B004C09265
:101F6000AF041092AB041092B1040E941D071092AE
:101F7000B4041092A6041092B5040F900F90CF9164
:101F8000DF911F910F91FF90DF90CF900895809186
:101F900059010E940210809158010E940210089578
:101FA000809159010E940210809158010E947A107C
:101FB00008958FEF0895882329F48BB1881F88270F
:101FC000881F0895813011F080E0089580919B0072
:101FD000881F8827881F08955F9BFECF5F988CB16C
:101FE000089580B5846080BD87E087BB88BB82E0B0
:101FF00082B987E68ABB80E48BBB80E58DB981E03E
:102000008EB908958F3F09F473C0282F30E02770F0
:1020100030702230310589F12330310544F4211527
:10202000310589F02130310509F062C01AC0243031
:10203000310509F43EC0243031056CF125303105FD
:1020400009F056C044C09BB386958695869541E0BD
:1020500050E002C0440F551F8A95E2F7942B9BBBBA
:1020600045C098B386958695869502C0220F331F8A
:102070008A95E2F7922B98BB39C095B386958695E1
:10208000869541E050E002C0440F551F8A95E2F763
:10209000942B95BB2BC092B386958695869541E08F
:1020A00050E002C0440F551F8A95E2F7942B92BB73
:1020B0001DC093B186958695869541E050E002C09B
:1020C000440F551F8A95E2F7942B93B90FC0909156
:1020D000620086958695869541E050E002C0440FE7
:1020E000551F8A95E2F7942B9093620081E0089542
:1020F0008FEF08958F3F09F47EC0282F30E02770BE
:10210000307022303105A1F12330310544F421151E
:10211000310589F02130310509F06DC01CC0243033
:10212000310509F445C02430310594F125303105DD
:1021300009F061C04DC03BB3282F26952695269502
:1021400081E090E002C0880F991F2A95E2F7809500
:1021500083238BBB4EC098B386958695869502C027
:10216000220F331F8A95E2F72095292328BB41C00F
:1021700035B3282F26952695269581E090E002C05C
:10218000880F991F2A95E2F78095832385BB31C07C
:1021900032B3282F26952695269581E090E002C03F
:1021A000880F991F2A95E2F78095832382BB21C06F
:1021B00033B1282F26952695269581E090E002C020
:1021C000880F991F2A95E2F78095832383B911C060
:1021D00030916200282F26952695269581E090E083
:1021E00002C0880F991F2A95E2F780958323809378
:1021F000620081E008958FEF08958F3F91F1282FBD
:1022000030E02770307022303105C1F023303105C5
:102210003CF42115310571F02130310511F50CC068
:102220002430310579F02430310554F02530310562
:10223000C1F40AC029B309C026B307C023B305C03F
:1022400020B303C021B101C020B130E0869586954E
:10225000869502C0359527958A95E2F7822F817081
:1022600008958FEF0895882319F080B58B7F02C001
:1022700080B5846080BD81E008958F3F09F4F8C087
:10228000282F30E0277030702230310509F458C013
:102290002330310544F42115310591F02130310509
:1022A00009F0E6C032C02430310509F493C024306F
:1022B00031050CF46AC02530310509F0D9C0AFC032
:1022C00099B3869586958695282F892F90E0022EC2
:1022D00002C0959587950A94E2F780FD0AC08BB3FA
:1022E00041E050E002C0440F551F2A95E2F7842BCD
:1022F0000AC03BB381E090E002C0880F991F2A9585
:10230000E2F7809583238BBBB1C046B38695869553
:10231000869550E0082E02C0559547950A94E2F73D
:1023200002C0220F331F8A95E2F740FD04C098B324
:10233000922B98BB9BC088B32095282328BB96C0BE
:1023400093B3869586958695282F892F90E0022E47
:1023500002C0959587950A94E2F780FD0AC085B37F
:1023600041E050E002C0440F551F2A95E2F7842B4C
:102370000AC035B381E090E002C0880F991F2A950A
:10238000E2F78095832385BB71C090B386958695CF
:102390008695282F892F90E0022E02C0959587956B
:1023A0000A94E2F780FD0AC082B341E050E002C027
:1023B000440F551F2A95E2F7842B0AC032B381E0FF
:1023C00090E002C0880F991F2A95E2F78095832339
:1023D00082BB4CC091B1869586958695282F892F12
:1023E00090E0022E02C0959587950A94E2F780FD51
:1023F0000AC083B141E050E002C0440F551F2A9546
:10240000E2F7842B0AC033B181E090E002C0880F6C
:10241000991F2A95E2F78095832383B927C090B14D
:10242000869586958695282F892F90E0022E02C0EA
:10243000959587950A94E2F780FD0BC08091620024
:1024400041E050E002C0440F551F2A95E2F7842B6B
:102450000BC03091620081E090E002C0880F991FAC
:102460002A95E2F7809583238093620081E00895A6
:102470008FEF08958F3F09F407C1282F30E06623BE
:1024800009F091C02770307022303105E1F123301E
:10249000310544F42115310591F02130310509F061
:1024A000F3C020C02430310509F453C02430310575
:1024B0000CF43CC02530310509F0E6C05DC09AB38C
:1024C00086958695869521E030E002C0220F331F65
:1024D0008A95E2F7822F809589238ABB8BB3822B62
:1024E0008BBBD0C047B386958695869502C0220FD8
:1024F000331F8A95E2F7922F9095942397BB98B358
:10250000922B98BBBFC094B386958695869521E0A3
:1025100030E002C0220F331F8A95E2F7822F8095A8
:10252000892384BB85B3822B85BBACC091B38695D0
:102530008695869521E030E002C0220F331F8A95F0
:10254000E2F7822F8095892381BB82B3822B82BBE5
:1025500099C092B186958695869521E030E002C0BB
:10256000220F331F8A95E2F7822F8095892382B943
:1025700083B1822B83B986C0909161008695869540
:10258000869521E030E002C0220F331F8A95E2F7E2
:10259000822F809589238093610080916200822B35
:1025A000809362006FC0277030702230310589F14E
:1025B0002330310544F42115310589F021303105EE
:1025C00009F062C01AC02430310509F43EC024303D
:1025D00031056CF12530310509F056C044C09AB37D
:1025E00086958695869521E030E002C0220F331F44
:1025F0008A95E2F7922B9ABB45C097B3869586954C
:10260000869502C0220F331F8A95E2F7922B97BB63
:1026100039C094B386958695869521E030E002C056
:10262000220F331F8A95E2F7922B94BB2BC091B3F4
:1026300086958695869521E030E002C0220F331FF3
:102640008A95E2F7922B91BB1DC092B18695869533
:10265000869521E030E002C0220F331F8A95E2F711
:10266000922B92B90FC090916100869586958695C0
:1026700021E030E002C0220F331F8A95E2F7922B4F
:102680009093610081E008958FEF08958FEF089592
:10269000009711F480E004C08130910529F488E0AE
:1026A0000E943D1181E008958230910511F08FEF75
:1026B000089580E10E943D1181E00895009711F492
:1026C00080E004C08130910529F488E00E94021066
:1026D00081E008958230910511F08FEF089580E137
:1026E0000E94021081E00895009711F480E004C078
:1026F0008130910529F488E00E947A1081E00895E4
:102700008230910511F08FEF089580E10E947A10D8
:1027100081E008955D9BFECF5D988CB908959091FE
:102720009B0095FFFCCF90919B009F7D90939B0019
:1027300080939C0008959093900089B986E08093DF
:1027400095005298599A8AB188618AB908959093F0
:1027500098008093990086E080939D00EAE9F0E07C
:1027600080818B7F8083ABE9B0E08C9182608C9319
:10277000808188618083089580919B0087FFFCCFD2
:1027800080919B008F7780939B0080919C0008959F
:102790000F931F93CF93DF930E949B130AE813E1DB
:1027A000CCEEDFE0C801BE010E9475299093590567
:1027B00080935805C801BE010E9475299093570562
:1027C00080935605DF91CF911F910F910895CF937C
:1027D000DF93EC0107C0609158057091590590E0B6
:1027E0000E94C129FE01219684918823A1F7DF91DF
:1027F000CF91089500000000000000000197D1F77C
:102800000895FC0187E090E060810E94D72A81E072
:1028100008950F931F93CF93DF93082F192FC8E0CC
:10282000D0E0CE01F80161918F010E94D72A219654
:10283000C831D105B1F781E0DF91CF911F910F91A0
:102840000895FC0186E090E060810E94D72A81E033
:1028500008950E94D72A0895CF93DF93EC0187E073
:1028600090E00E94CF2A888381E0DF91CF91089584
:102870000F931F93CF93DF93082F192FC8E0D0E059
:10288000CE010E94CF2AF80181938F012196C83191
:10289000D105B1F781E0DF91CF911F910F9108959C
:1028A000CF93DF93EC0186E090E00E94CF2A8883EB
:1028B00081E0DF91CF910895CF93DF93EC0185E024
:1028C00090E00E94CF2A888381E0DF91CF91089524
:1028D000EF92FF920F931F93CF93DF93E82EE701C0
:1028E0007E01F92EE70180E090E00E94CF2A082FB8
:1028F0008B8381E090E00E94CF2AE82E8A8382E0D9
:1029000090E00E94CF2AF82E898383E090E00E9415
:10291000CF2A182F888384E090E00E94CF2AFE0CF3
:10292000F00EF10E8F1511F08FEF01C081E0DF91F5
:10293000CF911F910F91FF90EF9008950E94CF2AA1
:102940000895F894089578940895F894FFCF85E653
:1029500090E008950E949D220895CF92DF92EF9219
:10296000FF920F931F93CF93DF93EC018B017A01BA
:102970008985823021F080912505888301C01882E5
:1029800080912505833020F087E060E00E940818E0
:102990008985823029F0809125058F5F80932505F8
:1029A00080912505882319F481E08093250588818D
:1029B000282F332727FD3095690155E0CC0CDD1C0D
:1029C0005A95E1F7C20ED31E2DEB34E0C20ED31E92
:1029D000F601118300839885928793E09187808721
:1029E0001582CE010B960E940A21F601948F838FE7
:1029F0000881112707FD1095CE014B960E940A21F0
:102A0000F80145E0EE0FFF1F4A95E1F7E00FF11FD7
:102A1000E354FB4F968B858B8881992787FD909592
:102A20008C0135E0000F111F3A95E1F7080F191FCF
:102A300003541B4FF80185899689238D348D820FAD
:102A4000931F908F878BCE0143960E940A21F80135
:102A5000968F858F8881992787FD9095FC0125E0C9
:102A6000EE0FFF1F2A95E1F7E80FF91FE354FB4F24
:102A7000858D968D928F818F81E090E090A3878FD6
:102A8000F382E28281E08487DF91CF911F910F91E1
:102A9000FF90EF90DF90CF900895DF92EF92FF923A
:102AA0000F931F93CF93DF93C5ECD4E010E0D88051
:102AB0008FEFD816B1F075ECE72E74E0F72E00E03A
:102AC000101741F0F7018081D81621F485E06D2DB3
:102AD0000E9408180F5F81E290E0E80EF91E0330B3
:102AE00079F71F5FA196133011F70E947E1C282FE3
:102AF000332727FD3095F90165E0EE0FFF1F6A953A
:102B0000E1F7E20FF31FE354FB4F228520933805D2
:102B100091E28902C001112483549B4F90933705A1
:102B200080933605909328058093270520932905E7
:102B30000E9403270E94F4260E942727FFCF0F93AD
:102B40001F93DF93CF93CDB7DEB7A3970FB6F8945B
:102B5000DEBF0FBECDBF0E947E19809326058F3F3A
:102B600021F48EE060E00E9408180E942D2680FF6C
:102B700004C086E060E00E940818109229051092B7
:102B800037051092360510922805109227051092ED
:102B90003805109235058FEF809322058093240528
:102BA0008093230593E69093C7048093C504909384
:102BB000E8048093E6049093090580930705E9E310
:102BC000F5E0CF01059694838383F783E683FC01C8
:102BD00085E0E834F807A9F710923B0510923A0512
:102BE00010924C0510924B0510922C0510922B055B
:102BF0003F97F093BC04E093BB048E010F5F1F4F1F
:102C0000C80167E772E20E94A726C8016AE174E082
:102C100040E850E00E94082785E580931A04198651
:102C20001C861D861E861F86188A198A1A8A1B8A88
:102C30001C8A1D8A1E8A1F8A188E198E1A8E1B8E58
:102C40001C8E1D8E1E8E1F8E18A219A21AA21BA2E8
:102C500081E0888792E09A878B87C8010E947C1F59
:102C6000A3960FB6F894DEBF0FBECDBFCF91DF9114
:102C70001F910F910895E0913605F09137058487F3
:102C80000895E0913605F0913705848508952091E7
:102C90001904222311F480E00895FB012083209180
:102CA0007502FC01208381E00895DF93CF930F929A
:102CB000CDB7DEB7198207C080ED97E00E94A3244C
:102CC00089818F5F898389818436B0F30F90CF919A
:102CD000DF91089581E090E00E9474130E945516E0
:102CE00081E090E00E945E130E945516089581E0F5
:102CF00090E00E9474130E9455160E9455160E947F
:102D0000551681E090E00E945E130E9455160895CA
:102D1000FF920F931F93DF93CF9300D00F92CDB705
:102D2000DEB700D000D000D0EDB7FEB731968E01EF
:102D30000F5F1F4FADB7BEB712961C930E9311973E
:102D400022E631E033832283848315820E94412A64
:102D5000FF24EDB7FEB736960FB6F894FEBF0FBE50
:102D6000EDBF72C0800F911FDC018C918433D1F1D3
:102D7000853370F48133F9F0823320F4803309F025
:102D80005CC016C0823311F1833309F056C023C0F2
:102D90008733C9F1883330F4853369F1863309F01C
:102DA0004CC02CC08833B1F1893309F046C03BC018
:102DB0000E94771602C00E946A160E9477160E942F
:102DC00077160E9477160E94771637C00E946A16FF
:102DD0000E946A16F4CF0E946A160E946A160E9428
:102DE0006A16EFCF0E946A160E946A160E946A163F
:102DF0000E946A16E8CF0E946A1602C00E947716E7
:102E00000E946A1604C00E9477160E9477160E94DC
:102E10006A1606C00E9477160E9477160E947716DF
:102E20000E946A1608C00E9477160E9477160E94B8
:102E300077160E9477160E946A160E9455160E9405
:102E400055160E945516F394F80101900020E9F7F9
:102E50003197E01BF10B8F2D90E08E179F0708F440
:102E600081CF0F900F900F90CF91DF911F910F9115
:102E7000FF9008950F931F9380911904882319F4EC
:102E80001F910F9108950E94A1140E94A11485E83A
:102E900093E00E94E71300D000D0EDB7FEB7319663
:102EA00082E691E0ADB7BEB712969C938E931197D0
:102EB00080917502828313820E94ED290F900F90FA
:102EC0000F900F9081E893E00E94E713809119041E
:102ED000873110F010921904E09119048E2F90E0C0
:102EE000FC013197E531F10508F047C0EA5BFF4F7F
:102EF000EE0FFF1F0590F491E02D09948AE593E011
:102F00003EC086E493E03BC080E393E038C085E1B7
:102F100093E035C08FEF92E032C087EE92E02FC091
:102F200084ED92E02CC081EC92E029C083EA92E02B
:102F300026C08EE792E023C082E792E020C087E5BA
:102F400092E01DC088E492E01AC084E392E017C0CA
:102F500083E292E014C08FE092E011C08FEE91E026
:102F60000EC087ED91E00BC08CEB91E008C08BEABE
:102F700091E005C08CE991E002C085E991E00E94F2
:102F8000E71360915805709159058DE090E00E941B
:102F9000C12960915805709159058AE090E00E941E
:102FA000C12910E021C082E090E00E94741383E008
:102FB00090E00E945E1300E088EE93E00E94A3245C
:102FC0000F5F0436C9F783E090E00E94741382E03B
:102FD00090E00E945E1300E088EE93E00E94A3243C
:102FE0000F5F0436C9F71F5F1431ECF283E090E005
:102FF0000E945E1382E090E00E945E138091750251
:103000000E948816809119040E94881610E0CBCF88
:10301000FF920F931F93DF93CF930F92CDB7DEB73D
:10302000182FF62E80931904609375020E943A17A8
:1030300000E025C082E090E00E94741383E090E0FD
:103040000E945E1320E088EE93E029830E94A3246F
:1030500029812F5F2436B9F783E090E00E94741332
:1030600082E090E00E945E1320E088EE93E02983E6
:103070000E94A32429812F5F2436B9F70F5F043102
:10308000C8F283E090E00E945E1382E090E00E942C
:103090005E138F2D0E948816812F0E94881600E0F3
:1030A000C9CF80931904E0913605F09137058085EA
:1030B000809375020E943A170895992787FD90958D
:1030C000FC0125E0EE0FFF1F2A95E1F7E80FF91F3D
:1030D000E354FB4FA281B3818C91853521F085E5C6
:1030E0008C938FEF08958081918121E18030920748
:1030F00010F481E0089582E10E9451188FEF089545
:103100006F927F928F929F92AF92BF92CF92DF92F7
:10311000EF92FF920F931F93CF93DF9381E993E098
:103120000E94E71300D000D085E691E0ADB7BEB7AE
:1031300012969C938E931197E0913605F091370586
:103140008085992787FD909514969C938E9313976D
:103150000E94ED29E0913605F0913705C281D381B7
:103160008EE691E0EDB7FEB792838183D483C3836B
:103170000E94ED29EDB7FEB731966BE7A62E61E010
:10318000B62EADB7BEB71296BC92AE92119788819B
:10319000828313820E94ED2958E8C52E51E0D52E76
:1031A000EDB7FEB7D282C182E0913605F0913705C6
:1031B00080819181ADB7BEB714969C938E9313977F
:1031C0000E94ED2942E9E42E41E0F42EEDB7FEB76E
:1031D000F282E18280913605909137059483838352
:1031E0000E94ED29CDEBD4E000E010E00F900F90AD
:1031F0000F900F9032EA832E31E0932E3501BC2CD4
:10320000AE2CCF2CEA80FB8000D000D000D0EDB7F0
:10321000FEB73196ADB7BEB712969C928E921197BB
:1032200013830283F582E4820E94ED290F900F90B0
:10323000EDB7FEB73196ADB7BEB711966C92119748
:1032400012967C92D7018C91828313820E94ED2981
:10325000EDB7FEB7B182D28288819981948383834E
:103260000E94ED29ADB7BEB71196AC921197129698
:10327000CC9212971496DC93CE9313970E94ED296B
:103280000F5F1F4FA1960F900F900F900F9003307C
:10329000110509F0B7CFDF91CF911F910F91FF90EA
:1032A000EF90DF90CF90BF90AF909F908F907F90E6
:1032B0006F900895CF93DF93E0913605F091370535
:1032C000C281D3818881853539F00E94801881E0E0
:1032D0000E94511885E58883E0913605F091370505
:1032E0008081918121E18030920728F00E9480182E
:1032F00082E10E945118DF91CF910895EF92FF92E1
:103300000F931F93E090FE02F090FF0200910003E4
:103310001091010380E090E0A8019701082E04C0FD
:1033200056954795379527950A94D2F721703070B6
:1033300021153105C9F421E030E040E050E0082ECD
:1033400004C0220F331F441F551F0A94D2F72E29A1
:103350003F29402B512B2093FE023093FF024093D4
:1033600000035093010305C0019680329105A1F638
:103370008FEF1F910F91FF90EF900895E091360528
:10338000F091370565857685878590890895EF9258
:10339000FF920F931F9321E030E040E050E004C023
:1033A000220F331F441F551F8A95D2F7E09136052F
:1033B000F091370585859685A785B08979018A01C1
:1033C000E822F9220A231B23E114F1040105110567
:1033D00011F48FEF19C020953095409550958223B8
:1033E0009323A423B52385879687A787B08B8189EC
:1033F0009289A389B48982239323A423B523818B43
:10340000928BA38BB48B81E01F910F91FF90EF9073
:103410000895992787FD90952091FE023091FF0233
:103420004091000350910103082E04C05695479522
:10343000379527950A94D2F7217030702115310500
:1034400011F48FEF0895E0913605F091370521E0F2
:1034500030E040E050E004C0220F331F441F551FEE
:103460008A95D2F785859685A785B089822B932B7F
:10347000A42BB52B85879687A787B08B81E008950D
:1034800080E090E0089525E08232920711F08FEFFE
:10349000089580E008950E94431A8F3F11F481E05F
:1034A00003C0813029F482E00E943B168FEF08951B
:1034B000992787FD9095FC01EE0FFF1FE80FF91F7C
:1034C000EE5DFA4F8FEF8083828381838091350593
:1034D00081508093350581E008950E94431A8F3F03
:1034E00011F481E003C0813029F482E00E943B1690
:1034F0008FEF0895992787FD9095FC01EE0FFF1F30
:10350000E80FF91FEE5DFA4F82810895EF92FF9266
:103510000F931F93DF93CF930F92CDB7DEB70E9427
:10352000431A8F3F11F481E003C0813029F482E017
:103530000E943B168FEF44C0282F332727FD30957C
:103540008901000F111F020F131F0E5D1A4FD801C2
:1035500012962C9112979C9129178CF589830E94C1
:10356000A114F80192819F5F9283E0913605F0915A
:1035700037051482E4ECF4E08981282F332727FDF6
:103580003095432F532F93E08081823089F4E28479
:10359000F38404851585E216F3060407150741F444
:1035A00092831786168610821286138614861586D5
:1035B000B19685E0E732F80739F70E94A31481E05D
:1035C0000F90CF91DF911F910F91FF90EF90089591
:1035D000EF92FF920F931F93DF93CF930F92CDB78C
:1035E000DEB751E0E52EF12C012D112D04C0EE0CBB
:1035F000FF1C001F111F8A95D2F78091FE02909147
:10360000FF02A0910003B09101038E219F21A0230E
:10361000B1230097A105B10511F481E042C00E94D9
:10362000A114E4ECF4E080E093E020812130B1F4D7
:1036300022853385448555852E213F214023512302
:10364000211531054105510549F0928317861686EB
:103650001082E286F3860487158781E0208122307C
:1036600091F422853385448555852E153F05400705
:10367000510749F4928317861686108212861386A4
:103680001486158681E0B19625E0E732F20769F6E7
:1036900089830E94A3148981882311F081E004C0EA
:1036A00082E00E943B168FEF0F90CF91DF911F9128
:1036B0000F91FF90EF900895EF92FF920F931F9359
:1036C000CF93DF93C82FDD27C7FDD09561E0E62EAD
:1036D000F12C012D112D0C2E04C0EE0CFF1C001F2F
:1036E000111F0A94D2F78091FE029091FF02A091DF
:1036F0000003B09101038E219F21A023B1230097E5
:10370000A105B10511F48FEF5CC00E94A114E4EC97
:10371000F4E0A8019701209530954095509563E01D
:1037200081818F3F39F186819781A085B1858E1582
:103730009F05A007B10731F41286138614861586FB
:103740001082628386819781A085B185822393232D
:10375000A423B52386839783A087B1878285938529
:10376000A485B58582239323A423B52382879387D9
:10377000A487B587B19695E0E732F90789F62EEF71
:103780003FEF4FEF5FEF04C0220F331F441F551F61
:10379000CA95D2F78091FE029091FF02A09100039A
:1037A000B091010382239323A423B5238093FE02C7
:1037B0009093FF02A0930003B09301030E94A3140F
:1037C00081E0DF91CF911F910F91FF90EF900895CD
:1037D0000F931F93DF93CF930F92CDB7DEB70E9465
:1037E000431A8F3F11F481E003C0813029F482E055
:1037F0000E943B168FEF40C089830E94A1148981EB
:10380000082F112707FD1095F801EE0FFF1FE00F9D
:10381000F11FEE5DFA4F92819923B1F4E0913605E4
:10382000F0913705978192609783992787FD90954E
:10383000A92FB92F818B928BA38BB48B0E94A314D9
:1038400080E090E00E94AD1EF801EE0FFF1FE00F38
:10385000F11FEE5DFA4F828181508283A09136057F
:10386000B091370581811B968C931B9781E014964C
:103870008C930E94A31481E00F90CF91DF911F9150
:103880000F910895E0913605F0913705258536852D
:10389000478550892623372348235923211531058D
:1038A0004105510529F420E030E040E050E023C01C
:1038B000618B728B838B948B21E02783009026058C
:1038C00004C096958795779567950A94D2F76170AD
:1038D00070706115710519F00E94511E04C080E0DE
:1038E00090E00E94AD1EE0913605F09137052189E8
:1038F000328943895489B901CA010895E0912B05A1
:10390000F0912C0580810895E0912B05F0912C0514
:1039100003C00380F481E02D3097D9F70895DF923A
:10392000EF92FF920F931F93CF93DF93E091BB042D
:10393000F091BC04309709F499C060912B05709107
:103940002C056115710519F4A0E0B0E055C0DB014C
:10395000482F552747FD50959A0115E0220F331F38
:103960001A95E1F7240F351F23543B4F8901065F59
:103970001F4F44E0E42EF12CE20EF31E255F3F4F73
:103980004C9150E0EA0195E0CC0FDD1F9A95E1F7EC
:10399000C40FD51FC354DB4F9C81992329F0DB84CE
:1039A000E8019881D91640F1E7019881992379F0CF
:1039B000EA0195E0CC0FDD1F9A95E1F7C40FD51F02
:1039C000C354DB4FDA84E9019881D916A8F0EA01E3
:1039D00095E0CC0FDD1F9A95E1F7C40FD51FC354B6
:1039E000DB4F4A85E8019881491730F013960D9016
:1039F000BC91A02D109721F68083C381D481D093F0
:103A0000BC04C093BB04A617B707B1F4109749F0E4
:103A1000B483A383128211821296FC93EE931197C2
:103A200006C01482138212821182FA83E983F09312
:103A30002C05E0932B051AC011968D919C9112973D
:103A4000AC17BD0759F092838183B483A383119689
:103A5000CD91DC911297FC83EB8304C01482138216
:103A6000928381831296FC93EE931197DF91CF910D
:103A70001F910F91FF90EF90DF900895CF93DF9308
:103A8000E0912B05F0912C05309709F44DC0482F9B
:103A9000552747FD5095808190E08417950779F46C
:103AA000A381B481B0932C05A0932B0512961C9290
:103AB0001E9211970EC0E22FF92F3097A9F1608165
:103AC00070E02381948164177507A9F720C0BA8339
:103AD000A983A091BB04B091BC04109739F4F09372
:103AE000BC04E093BB04148213820AC0B483A38392
:103AF0001296FC93EE931197F093BC04E093BB04F1
:103B0000E091BB04F091BC04128211820DC0A1812E
:103B1000B28113962C93139714969C931497C38198
:103B2000D4812097A1F6D5CFDF91CF910895E09170
:103B30003605F0913705808508950E94B726E091FB
:103B40003605F091370585818823B9F70895EF92FE
:103B5000FF921F93DF93CF93CDB7DEB728970FB6B1
:103B6000F894DEBF0FBECDBF29833A834B835C83BD
:103B70006D837E838F8398870E945A190E94A114B7
:103B8000E0913605F091370581E0858381E090E092
:103B900090A3878F0E944A25182FCE0101960E947C
:103BA0000A21E0913605F0913705E12EFF248E0DB4
:103BB0009F1D968B858B183F78F40E9444250894AE
:103BC000E11CF11C90E0E816F90634F4812F8E5FB9
:103BD00080939F040E9447250E94A3140E949D1D6C
:103BE00081E028960FB6F894DEBF0FBECDBFCF910F
:103BF000DF911F91FF90EF9008958F929F92AF9267
:103C0000BF92CF92DF92EF92FF920F931F93DF93B9
:103C1000CF93CDB7DEB760970FB6F894DEBF0FBE77
:103C2000CDBF29873A874B875C876D877E878F87D3
:103C3000988BCE0101960E942022CE01099609851B
:103C40001A852B853C854D855E856F8578898980B1
:103C50009A80AB80BC80CD80DE80EF80F8840E94AB
:103C6000D11F8F3F59F029853A854B855C856D853D
:103C70007E858F8598890E94A71D81E060960FB68A
:103C8000F894DEBF0FBECDBFCF91DF911F910F9192
:103C9000FF90EF90DF90CF90BF90AF909F908F906C
:103CA00008951F930E94A114E0913605F091370505
:103CB00081E0858386830E944A25182F883F80F4FF
:103CC0000E944425212F30E02F5F3F4F90E02817BE
:103CD000390734F4812F8E5F80939F040E9447251B
:103CE0000E94A3140E949D1D81E01F9108951F93BF
:103CF000DF93CF93CDB7DEB728970FB6F894DEBF2A
:103D00000FBECDBF29833A834B835C836D837E8353
:103D10008F8398870E94A1140E944A25182FCE01F4
:103D200001960E940A218330910510F48FEF0BC099
:103D3000E0913605F0913705810F911D968B858BAB
:103D40000E94A31481E028960FB6F894DEBF0FBE40
:103D5000CDBFCF91DF911F9108951F93CF93DF9334
:103D6000EC010E94A114E0913605F091370581E045
:103D70008583D68BC58B0E944A25182F883F80F4F7
:103D80000E944425212F30E02F5F3F4F90E02817FD
:103D9000390734F4812F8E5F80939F040E9447255A
:103DA0000E94A3140E949D1D81E0DF91CF911F917D
:103DB0000895EF92FF921F93CF93DF937C010E94AF
:103DC000A114E0913605F091370581E085830E94CA
:103DD0004A25182FE0913605F0913705C82FD0E01D
:103DE000EC0EFD1EF68AE58A883F68F40E944425A1
:103DF000219690E0C817D90734F4812F8E5F809305
:103E00009F040E9447250E94A3140E949D1D81E0EB
:103E1000DF91CF911F91FF90EF9008951F93CF9363
:103E2000DF93EC010E945A19209711F4C1E0D0E011
:103E30000E94A114E0913605F091370581E0858359
:103E4000D0A3C78F0E944A25182F883F80F40E9474
:103E50004425212F30E02F5F3F4F90E0281739078E
:103E600034F4812F8E5F80939F040E9447250E9427
:103E7000A3140E949D1D81E0DF91CF911F910895B1
:103E80001F930E945A190E94A114E0913605F091E7
:103E9000370581E090E090A3878F81E085830E94C1
:103EA0004A25182F883F80F40E944425212F30E0B6
:103EB0002F5F3F4F90E02817390734F4812F8E5F32
:103EC00080939F040E9447250E94A3140E949D1D79
:103ED00081E01F910895E0913605F09137058085C6
:103EE0000E943E1DE0913605F091370584E0818700
:103EF0000E94401F81E00895EF92FF920F931F935D
:103F0000CF93DF93EC0169817A814B815C818D8154
:103F10009E810E94C226BC018F81882369F04B815B
:103F20005C81CE0120E030E000E010E0EE24FF24D0
:103F30000E94AD141F8215C08881992787FD909536
:103F4000FC0125E0EE0FFF1F2A95E1F7E80FF91FAE
:103F5000E354FB4F8185833011F08FEF1BC07183D9
:103F600060838881282F332727FD3095F90105E0EC
:103F7000EE0FFF1F0A95E1F7E20FF31FE354FB4F2B
:103F8000258936892115310521F492E091870E9417
:103F90008F1C81E0DF91CF911F910F91FF90EF90E7
:103FA00008958F929F92AF92BF92CF92DF92EF923D
:103FB000FF920F931F93DF93CF93CDB7DEB7609738
:103FC0000FB6F894DEBF0FBECDBFFC0109831A8384
:103FD0002B833C834D835E836F83788789869A86A3
:103FE000AB86BC86CD86DE86EF86F88AA980BA804D
:103FF000CB80DC802D813E814F815885E984FA8415
:104000000B851C858D859E85AF85B889AE14BF0450
:10401000C006D10608F440C0EA14FB040C051D05D7
:1040200091F4281739074A075B07B0F1281B390BB1
:104030004A0B5B0B2483358346835783108211829E
:10404000128213821EC0281739074A075B07D8F46B
:104050000894A108B108C108D108AE18BF08C00A69
:10406000D10AA082B182C282D38220503643454613
:10407000544C281B390B4A0B5B0B24833583468336
:10408000578381E00AC0AE18BF08C00AD10AA082D7
:10409000B182C282D382EDCF8FEF60960FB6F894D3
:1040A000DEBF0FBECDBFCF91DF911F910F91FF906B
:1040B000EF90DF90CF90BF90AF909F908F9008953A
:1040C0008F929F92AF92BF92CF92DF92EF92FF9228
:1040D0000F931F93DF93CF93CDB7DEB760970FB6E3
:1040E000F894DEBF0FBECDBFFC0109831A832B837A
:1040F0003C834D835E836F83788789869A86AB86FF
:10410000BC86CD86DE86EF86F88AED80FE800F8144
:1041100018858D859E85AF85B88929853A854B851B
:104120005C85A980BA80CB80DC802A0D3B1D4C1DAC
:104130005D1D20833183428353838E0D9F1DA01FFD
:10414000B11F84839583A683B78310C020813181FA
:10415000428153812F5F3F4F4F4F5F4F2083318309
:104160004283538380509A4CAA49BB4380302AEC47
:1041700092072AE9A2072BE3B20740F784839583CD
:10418000A683B78381E060960FB6F894DEBF0FBEBA
:10419000CDBFCF91DF911F910F91FF90EF90DF90F6
:1041A000CF90BF90AF909F908F900895FC01848135
:1041B0009581A681B78110C02081318142815381D0
:1041C0002F5F3F4F4F4F5F4F208331834283538395
:1041D00080509A4CAA49BB4380302AEC92072AE9C6
:1041E000A2072BE3B20740F784839583A683B783A6
:1041F000089560932D0570932E0580932F0590935D
:1042000030052093310530933205409333055093A8
:1042100034050895AF92BF92CF92DF92EF92FF9252
:104220000F931F93FC01208131814281538121151D
:1042300031054105510551F12B323105410551053B
:1042400018F020E030E02CC080E010C0A12C9AECE7
:10425000B92E9AE9C92E9BE3D92EEA0CFB1C0C1D42
:104260001D1DE482F582068317838F5FA82EBB2471
:10427000CC24DD24E480F58006811781A216B306E4
:10428000C406D50618F3C801B70104C0648175815E
:104290008681978123EB36EE4EE050E00E94DE28C7
:1042A000C9011F910F91FF90EF90DF90CF90BF90C9
:1042B000AF900895EF92FF920F931F93DF93CF93E8
:1042C000CDB7DEB728970FB6F894DEBF0FBECDBFCF
:1042D0007B018C0173708070907023EB36EE4EE0A2
:1042E00050E00E9498286D837E838F839887A80171
:1042F0009701EAE05695479537952795EA95D1F7C6
:1043000029833A834B835C833A814B815C81289675
:104310000FB6F894DEBF0FBECDBFCF91DF911F91D6
:104320000F91FF90EF900895AF92BF92CF92DF92DE
:10433000EF92FF920F931F93DF93CF93CDB7DEB72A
:1043400028970FB6F894DEBF0FBECDBF29833A83FE
:104350004B835C836D837E838F839887E980FA80AB
:104360000B811C81AD80BE80CF80D884E114F10424
:104370000105110519F180E09AECAAE9BBE3A80E4A
:10438000B91ECA1EDB1EC601B50123EB36EE4EE098
:1043900050E00E94DE28C901DA010894E108F10822
:1043A00001091109FAE0EE0CFF1C001F111FFA951C
:1043B000D1F7E80EF91E0A1F1B1F0CC0C601B5017C
:1043C00023EB36EE4EE050E00E94DE28E22EF32E84
:1043D000042F152FC801B70104C0605074408040FD
:1043E00090406130A4E07A07A0E08A07A0E09A0735
:1043F000A0F723EB36EE4EE050E00E949828675A73
:104400007C48884F9F4F6A157B058C059D0528F4D5
:104410000894E11CF11C011D111DB701C80128966B
:104420000FB6F894DEBF0FBECDBFCF91DF911F91C5
:104430000F91FF90EF90DF90CF90BF90AF900895D5
:10444000EF92FF920F931F93CF93DF93EC01809134
:104450002D0590912E05A0912F05B09130058883F0
:104460009983AA83BB83E0903105F09032050091D7
:10447000330510913405EC82FD820E831F830E9468
:104480004A25682F70E080E090E023EB36EE4EE0A6
:1044900050E00E9498286E0D7F1D801F911F6C8335
:1044A0007D838E839F8310C0288139814A815B81FF
:1044B0002F5F3F4F4F4F5F4F288339834A835B8382
:1044C00060507A4C8A499B4360302AEC72072AE993
:1044D00082072BE3920740F76C837D838E839F8353
:1044E000DF91CF911F910F91FF90EF9008950F935F
:1044F0001F9301E012E00E945A190E944425853161
:1045000028F400932A050E94B72608C08AE090E0AC
:104510000E94A32410932A050E94AB2680911A04BE
:10452000853519F088E00E94511880917E108535FC
:1045300011F388E00E945118DECF2F923F924F92E4
:104540005F926F927F928F929F92AF92BF92CF9223
:10455000DF92EF92FF920F931F93CF93DF930E940E
:10456000A1140E94D4240E941A252C018AEF0E94D3
:10457000472560919F0470E080E090E023EB36EEE9
:104580004EE050E00E9498287B018C01809131051B
:1045900090913205A0913305B0913405E80EF91ED3
:1045A0000A1F1B1FC801B7010E94DE28E61AF70A7E
:1045B000080B190B80912D0590912E05A0912F05C8
:1045C000B091300516C080E096E3A5E6B4ECE80EA5
:1045D000F91E0A1F1B1FC801B70123EB36EE4EE080
:1045E00050E00E94DE28E61AF70A080B190BD601E4
:1045F000C5015C016D010894A11CB11CC11CD11C3A
:1046000020E0E2162AECF2062AE902072BE3120761
:10461000D0F6E0923105F092320500933305109305
:10462000340580932D0590932E05A0932F05B0930C
:104630003005E0913605F091370585818823B9F082
:1046400081858430A1F08781823029F0882341F070
:104650008681882311F485E001C083E0818704C04E
:1046600083E081871782168280850E943E1DE0913B
:104670003605F0913705858D968D009791F160850F
:10468000662379F18185843061F1218D328D8091AD
:104690009F0490E02817390750F482E00E94081820
:1046A000E0913605F0913705128E118E04C0281B5B
:1046B000390B328F218FE0913605F0913705108547
:1046C000818D928D009769F483E0612F0E94081814
:1046D000E0913605F091370583E08187812F0E94B4
:1046E0003E1DC2ECD4E0A0E6EA2EAAEEFA2E10E0BF
:1046F000F1E0CF2ED12CEAEFAE2EB12C02E071E02A
:10470000672E712C812C912C8B818F3F09F487C0EF
:104710001882882369F18C81843051F12889398984
:1047200080919F0490E02817390728F0281B390B47
:10473000398B288B02C0198A188A6A897B89681785
:10474000790728F46E897F898617970728F4681BF4
:10475000790B7B8B6A8B04C00E94B7289B8B8A8B5A
:104760008A899B89009721F48E899F899B8B8A8BEC
:104770008C81833009F053C088899989009709F0AA
:1047800046C08A81882391F08981882379F0D401F9
:10479000C3010090260504C0880F991FAA1FBB1FE4
:1047A0000A94D2F78C879D87AE87BF871A821982B9
:1047B00018822A8D3B8D8E899F89488D598D213095
:1047C000310579F45D8B4C8B0C832A893B89398BBD
:1047D000288B009711F4B98AA88A812F0E948F1C18
:1047E00016C05D8B4C8B21503040A901489F900131
:1047F000499F300D589F300D1124398B288B3B8BEE
:104800002A8B009711F4B98AA88ADB8ECA8E288871
:1048100039882114310419F02E143F0408F01701CF
:104820001F5FA196133011F071016ECF0E947E1CA4
:10483000182F992787FD9095FC0165E0EE0FFF1F6B
:104840006A95E1F7E80FF91FE354FB4F4285409367
:10485000380581E21802C001112483549B4F9093C4
:104860002805809327051123A1F0258D368D21156C
:10487000310551F0218D328D2A3F310528F4221562
:10488000330528F5190123C05BEF25163104F8F034
:1048900017C0A5E12A163104D0F09101245130400F
:1048A0002A3F310540F419012331310580F453E1E9
:1048B000252E312C0CC02EE0221621E0320621F0EC
:1048C0003AEF232E312C03C026EE222E312C4093BA
:1048D0002905909337058093360520929F040E9406
:1048E0004A2590E001968215930550F00E944A25D2
:1048F000282E332442E050E0240E351E20929F04DF
:10490000112311F010922A05822D0E944725C20121
:104910006EEE72E00E94DA240E94ED260E942727A4
:10492000DF91CF911F910F91FF90EF90DF90CF908B
:10493000BF90AF909F908F907F906F905F904F90BF
:104940003F902F90089500000000000000000197A4
:10495000D1F7089588E080BF8EEF81BF23E026BFA6
:104960008BE083BF90B5976090BD26BF83BF90B5A5
:10497000976090BD1FBC91E09EBD1DBC1CBC90B556
:10498000916090BD90B5926090BD12BE10929F0450
:1049900083BF87B7836087BF10929D0408951EBCB4
:1049A000089581E08EBD089580B5816080BD1DBCF5
:1049B0001CBC0895EF92FF920F931F93DF93CF9348
:1049C00000D0CDB7DEB72FEF8937920710F080E027
:1049D00090E09C0140E050E07B0100E010E02E0DF3
:1049E0003F1D401F511F213060E0360761E0460740
:1049F00060E0560768F06CB57DB57A83698369819C
:104A00007A8186179707B8F32050304041405040D4
:104A10008CB59DB59A83898389819A818217930782
:104A2000B8F30F900F90CF91DF911F910F91FF90EE
:104A3000EF900895DF93CF9300D0CDB7DEB78CB55C
:104A40009DB59A83898329813A81C9010F900F907E
:104A5000CF91DF91089582BF089513BE87B78D7FF0
:104A600087BF87B78E7F87BF08958BE083BF87B7E7
:104A7000836087BF089580B5826080BD12BE1092AA
:104A80009D0410929F04089581B78F5F089581500F
:104A900081BF089582B708950F920FB60F921F92AB
:104AA0002F923F924F925F926F927F928F929F923E
:104AB000AF92BF92CF92DF92EF92FF920F931F932C
:104AC0002F933F934F935F936F937F938F939F9316
:104AD000AF93BF93CF93DF93EF93FF93A0913605EE
:104AE000B09137050DB60D920EB60D921F92A091A2
:104AF0007703B09178031E90BEBFADBF08958823A1
:104B000019F487B78F7787BF8FEF0895882311F047
:104B10008FEF089514BC81E00895882319F020E0F8
:104B200030E002C024B530E0C9010895882311F0B7
:104B30008FEF089587B7806887BF81E00895882345
:104B400011F08FEF0895CB0101978530910510F496
:104B500060939E0488E085BD43BD30939C04209300
:104B60009B0480919E04813019F485B5816009C051
:104B7000823019F485B5826004C0833021F485B594
:104B8000836085BD07C0843019F485B58460F9CF92
:104B9000853011F081E0089585B5856085BD81E09F
:104BA00008951F920F920FB60F920BB60F92112419
:104BB0002F933F934F935F936F937F938F939F9325
:104BC000AF93BF93EF93FF93E0919B04F0919C040C
:104BD000309711F0099504C08AE060E00E9408183F
:104BE000FF91EF91BF91AF919F918F917F916F91C5
:104BF0005F914F913F912F910F900BBE0F900FBE81
:104C00000F901F9018951F920F920FB60F920BB630
:104C10000F9211242F933F934F935F936F937F9342
:104C20008F939F93AF93BF93EF93FF938AE060E0DE
:104C30000E940818FF91EF91BF91AF919F918F91C2
:104C40007F916F915F914F913F912F910F900BBE8C
:104C50000F900FBE0F901F90189504B603FE02C070
:104C600080E101C080E004B602FE06C094B79B7FDD
:104C700094BF04B600FE846004B601FE05C094B77C
:104C80009D7F94BF82600895882359F404B600FC88
:104C900002C081E003C094B79E7F94BF93B7911187
:104CA000816008958FEF08958FEF08958FEF089535
:104CB0001F920F920FB60F920BB60F9211242F93E3
:104CC0003F934F935F936F937F938F939F93AF9394
:104CD000BF93EF93FF938AE060E00E940818FF9172
:104CE000EF91BF91AF919F918F917F916F915F9164
:104CF0004F913F912F910F900BBE0F900FBE0F90D1
:104D00001F90189504B603FE02C08FEF089581E04E
:104D10000895A89508950E94A11484B7877F84BF41
:104D2000A89581B5886181BD8FE081BD0E94A314E3
:104D300008950E94A114A89584B7877F84BF81B588
:104D4000886181BD11BC0E94A31408950895FC01DF
:104D500076836583089585B7837E886185BF85B72F
:104D6000806285BF889585B78F7D85BF089585B79B
:104D7000837E85BF85B7806285BF889585B78F7D27
:104D800085BF089525E5FA012083FB0132979083C2
:104D90008183129212921292129212921292129293
:104DA00012921292129212921292129212921292E3
:104DB00012921292129212921292129212921292D3
:104DC00012921292129212921292129212921292C3
:104DD000129212921292CF0108958AEA94E190936E
:104DE000FE108093FF10089585E580937E10EEEF0E
:104DF000F0E1F0937803E09377038AEA94E19083FB
:104E00008093FF1008950E94AA240E94A31408957D
:104E1000EF92FF920F931F93CF93DF93EC018B01DF
:104E20007A014032510518F481E10E94511808942A
:104E3000E108F108E00EF11EFA82E9821C830B837F
:104E4000DF91CF911F910F91FF90EF900895A09166
:104E50002705B0912805CD91CDBFDD91DEBFFF9133
:104E6000EF91DF91CF91BF91AF919F918F917F9102
:104E70006F915F914F913F912F911F910F91FF90F3
:104E8000EF90DF90CF90BF90AF909F908F907F90EA
:104E90006F905F904F903F902F901F900F900FBE9C
:104EA0000F9018956F927F928F929F92AF92BF92C0
:104EB000CF92DF92EF92FF920F931F93DF93CF93E6
:104EC000CDB7DEB72D970FB6F894DEBF0FBECDBFBE
:104ED0006C014B018A01FC0117821682838181FDDE
:104EE00006C02FEF3FEF0EC10E5F1F4F04C05E01E3
:104EF0000894A11CB11CF601F380F401F3FC859128
:104F0000F3FE81914F01882309F4F9C0853251F4F1
:104F1000F3FC2591F3FE21914F01253211F030E091
:104F20001FC085E290E032C0222309F4E8C087EA7E
:104F300093E0622F70E02C873D870E946A292C85C0
:104F40003D85009739F4233211F4306103C02C36CB
:104F500061F43068F401F3FC2591F3FE21914F01D7
:104F600037FFE2CF222309F4CAC0F32E80EA93E090
:104F7000622F70E02C873D870E946A292C853F2D87
:104F8000009741F00C5F1F4F8FE390E0B6010E9445
:104F9000C129B1CF233629F0233791F0233509F504
:104FA0000DC032E0E32EF12CE00EF11EF8018081FD
:104FB0009181B6010E94C12987019DCFF1E0FF2AAE
:104FC000F8016080718004C090E0B6010E94C129A0
:104FD000F301F0FC8591F0FE81913F018823A1F758
:104FE00083CF243611F0293629F537FF08C0F801A0
:104FF00060817181828193810C5F1F4F09C0F8012C
:1050000060817181882777FD8095982F0E5F1F4FF3
:105010002FEEF22EF32297FF09C0909580957095A0
:1050200061957F4F8F4F9F4FF0E4FF2AA5012AE043
:1050300030E035C02037B1F0213730F42835C9F0E1
:105040002F3609F05CC006C0253739F0283709F043
:1050500056C00AC028E030E010C02FEEF2222AE04D
:1050600030E00BC080E1F82AE4E2FE2A20E130E0E3
:1050700004C0F4E0FF2A20E132E0F7FE08C0F801A6
:1050800060817181828193810C5F1F4F07C0F8019D
:105090006081718180E090E00E5F1F4FA5010E944A
:1050A000712AE82EEA186F2C7724F6FE05C08DE2EF
:1050B00090E0B6010E94C12964FE15C0FE01EE0D0C
:1050C000F11D8081803379F080E390E0B6010E9489
:1050D000C12962FE08C0C30180729070885A9F4F38
:1050E000B6010E94C129EA94F501EE0DF11D8081FF
:1050F00090E0B6010E94C129EE20A9F7FCCEF6018E
:1051000026813781C9012D960FB6F894DEBF0FBEF8
:10511000CDBFCF91DF911F910F91FF90EF90DF9066
:10512000CF90BF90AF909F908F907F906F90089599
:10513000629FD001739FF001829FE00DF11D649F7B
:10514000E00DF11D929FF00D839FF00D749FF00D07
:10515000659FF00D9927729FB00DE11DF91F639FA8
:10516000B00DE11DF91FBD01CF0111240895AA1B47
:10517000BB1B51E107C0AA1FBB1FA617B70710F042
:10518000A61BB70B881F991F5A95A9F78095909574
:10519000BC01CD01089597FB092E07260AD077FDA3
:1051A00004D0E5DF06D000201AF4709561957F4F9A
:1051B0000895F6F7909581959F4F0895A1E21A2ED4
:1051C000AA1BBB1BFD010DC0AA1FBB1FEE1FFF1FAB
:1051D000A217B307E407F50720F0A21BB30BE40BFB
:1051E000F50B661F771F881F991F1A9469F7609542
:1051F0007095809590959B01AC01BD01CF010895FC
:10520000AF92BF92CF92DF92EF92FF920F931F93D4
:10521000CF93DF93EC01E880F9800A811B81E114D0
:10522000F1040105110541F484E2E82E89EDF82E20
:105230008BE5082F87E0182FC801B7012DE133EF68
:1052400041E050E00E94162C27EA31E440E050E0B3
:105250000E9498285B016C01C801B7012DE133EF72
:1052600041E050E00E94162CCA01B9012CEE34EF47
:105270004FEF5FEF0E9498286A0D7B1D8C1D9D1DCE
:1052800097FF04C0615070408040904868837983E4
:105290008A839B837F77CB01DF91CF911F910F9101
:1052A000FF90EF90DF90CF90BF90AF9008950E9455
:1052B0000029089583EB91E00E9400290895A0E061
:1052C000B0E08093B3019093B401A093B501B09383
:1052D000B6010895FC010590061621F00020D9F7CB
:1052E000C00108953197CF0108950F931F93CF9375
:1052F000DF93EC018B01009731F46115710519F40E
:1053000020E030E038C081E090E06EE070E00E9484
:10531000E42AFC019C01009771F180E88383011568
:10532000110571F01387028781E883838091560508
:1053300090915705009721F4F0935705E093560597
:105340002097C9F0D187C087838182608383809151
:10535000580590915905009771F4F0935905E09321
:10536000580580915A0590915B05009721F4F093C0
:105370005B05E0935A05C901DF91CF911F910F9111
:1053800008950F931F93CF93DF938C01EB018B81D3
:1053900081FF1BC082FF0DC02E813F818C819D81CA
:1053A0002817390764F4E881F9810193F983E883C8
:1053B00006C0E885F985802F0995009731F48E8124
:1053C0009F8101969F838E8302C00FEF1FEFC8015C
:1053D000DF91CF911F910F910895DF93CF93CDB7B8
:1053E000DEB7FE01359661917191809158059091DB
:1053F0005905AF010E945227CF91DF910895609126
:105400005805709159050E94C1290895EF92FF92A5
:105410000F931F93CF93DF938C01E0915805F09188
:105420005905838181FF23C0C0E0D0E00EC06091A8
:10543000580570915905DB011896ED91FC9119976B
:105440000995009711F0CFEFDFEFF80181918F01FF
:10545000882369F76091580570915905DB0118960A
:10546000ED91FC9119978AE00995009711F0CFEF23
:10547000DFEFCE01DF91CF911F910F91FF90EF9061
:1054800008950F931F93DF93CF93CDB7DEB72E9779
:105490000FB6F894DEBF0FBECDBF0D891E8986E022
:1054A0008C831A8309838FEF9FE79E838D839E01F0
:1054B000275E3F4FCE0101966F89788DA9010E942A
:1054C0005227EF81F885E00FF11F10822E960FB65C
:1054D000F894DEBF0FBECDBFCF91DF911F910F912A
:1054E0000895FA01AA27283051F1203181F1E8947A
:1054F0006F936E7F6E5F7F4F8F4F9F4FAF4FB1E0C7
:105500003ED0B4E03CD0670F781F891F9A1FA11DC1
:10551000680F791F8A1F911DA11D6A0F711D811DC2
:10552000911DA11D20D009F468943F912AE0269F87
:1055300011243019305D3193DEF6CF010895462FE6
:105540004770405D4193B3E00FD0C9F7F6CF462FC7
:105550004F70405D4A3318F0495D31FD4052419330
:1055600002D0A9F7EACFB4E0A695979587957795ED
:105570006795BA95C9F700976105710508959B0174
:10558000AC010A2E06945795479537952795BA95FD
:10559000C9F7620F731F841F951FA01D0895E1991D
:1055A000FECF9FBB8EBBE09A99278DB30895262F1F
:1055B000E199FECF9FBB8EBB2DBB0FB6F894E29A4C
:1055C000E19A0FBE01960895EF92FF920F931F93F9
:1055D000CF93DF93689F8001699F100D789F100D16
:1055E0001124C8010E940A2BE82EE7017E01F92E42
:1055F000E701E114F10431F08E2D60E070E0A801C4
:105600000E940F2CCE01DF91CF911F910F91FF903F
:10561000EF900895CF93DF938230910510F482E0EC
:1056200090E0A0915E05B0915F05FD0120E030E0C3
:10563000C0E0D0E020C0408151814817590761F493
:1056400082819381209719F09B838A833AC090933B
:105650005F0580935E0535C08417950738F42115E2
:10566000310519F04217530708F49A01EF015281EE
:105670004381E52FF42F3097F1F621153105B9F16B
:10568000A901481B590B4430510508F4C901E0E059
:10569000F0E02BC04D915C9111974217530701F533
:1056A0008217930781F412968D919C9113973097EE
:1056B00019F09383828304C090935F0580935E0505
:1056C000FD0132964FC0281B390BFD01E20FF31F7D
:1056D000819391932250304011963C932E9342C077
:1056E000FD0152814381A52FB42F109799F6209187
:1056F0005C0530915D052115310541F42091B9011A
:105700003091BA0130935D0520935C052091BB0177
:105710003091BC012115310541F42DB73EB74091C0
:10572000B7015091B801241B350BE0915C05F09155
:105730005D05E217F307A0F42E1B3F0B281739076E
:1057400078F0AC014E5F5F4F2417350748F04E0FDD
:105750005F1F50935D0540935C058193919302C058
:10576000E0E0F0E0CF01DF91CF910895CF93DF9398
:10577000009709F451C0FC01329713821282A09164
:105780005E05B0915F05109751F140E050E0AE1713
:10579000BF0748F412968D919C911397AD01009725
:1057A00019F1DC01F4CFB383A283EF012991399180
:1057B000CE01820F931FA817B90771F48D919C91A8
:1057C0001197820F931F02969183808312968D9179
:1057D0009C911397938382834115510529F4F0938B
:1057E0005F05E0935E0518C0DA011396FC93EE9313
:1057F00012972D913D91A20FB31FEA17FB0761F499
:1058000080819181820F931F0296EA019983888398
:10581000828193819B838A83DF91CF910895DC01FC
:1058200001C06D9341505040E0F7089597FB092E59
:1058300005260ED057FD04D0C1DC0AD0001C38F478
:1058400050954095309521953F4F4F4F5F4F0895AC
:10585000F6F790958095709561957F4F8F4F9F4F8C
:065860000895F894FFCF4B
:1058660043726561746520646F6E650D0072785FC2
:105876007461736B205049443D25640D0A007278AB
:105886005F7461736B3A20706B74206C656E3D2596
:105896006420727373693D2564205B005D0D000012
:1058A600081028300109111939131B232B333B0427
:1058B6000C34050D151D353D0A12FFFFFFFFFFFFD6
:1058C600FFFF2564006375723A2025642000626F2D
:1058D60074746F6D203D202578200063616E6172BF
:1058E60079203D202578200073746B203D20257893
:1058F60020007463622061646472203D2025780D67
:105906000A0025643A20626F74746F6D203D20256D
:0E591600782000010000002000600500000065
:00000001FF
